{
  "_format": "hh-sol-artifact-1",
  "contractName": "Contract",
  "sourceName": "contracts/Contract.sol",
  "abi": [
    {
      "inputs": [],
      "stateMutability": "payable",
      "type": "constructor"
    },
    {
      "anonymous": false,
      "inputs": [
        {
          "indexed": true,
          "internalType": "address",
          "name": "from",
          "type": "address"
        },
        {
          "indexed": false,
          "internalType": "uint256",
          "name": "timestamp",
          "type": "uint256"
        },
        {
          "indexed": false,
          "internalType": "string",
          "name": "message",
          "type": "string"
        }
      ],
      "name": "NewWave",
      "type": "event"
    },
    {
      "inputs": [],
      "name": "getAllWaves",
      "outputs": [
        {
          "components": [
            {
              "internalType": "address",
              "name": "waver",
              "type": "address"
            },
            {
              "internalType": "string",
              "name": "message",
              "type": "string"
            },
            {
              "internalType": "uint256",
              "name": "timestamp",
              "type": "uint256"
            }
          ],
          "internalType": "struct Contract.Wave[]",
          "name": "",
          "type": "tuple[]"
        }
      ],
      "stateMutability": "view",
      "type": "function"
    },
    {
      "inputs": [],
      "name": "getTotalWaves",
      "outputs": [
        {
          "internalType": "uint256",
          "name": "",
          "type": "uint256"
        }
      ],
      "stateMutability": "view",
      "type": "function"
    },
    {
      "inputs": [
        {
          "internalType": "address",
          "name": "",
          "type": "address"
        }
      ],
      "name": "lastWavedAt",
      "outputs": [
        {
          "internalType": "uint256",
          "name": "",
          "type": "uint256"
        }
      ],
      "stateMutability": "view",
      "type": "function"
    },
    {
      "inputs": [
        {
          "internalType": "address",
          "name": "",
          "type": "address"
        }
      ],
      "name": "numWaves",
      "outputs": [
        {
          "internalType": "uint256",
          "name": "",
          "type": "uint256"
        }
      ],
      "stateMutability": "view",
      "type": "function"
    },
    {
      "inputs": [
        {
          "internalType": "string",
          "name": "_message",
          "type": "string"
        }
      ],
      "name": "wave",
      "outputs": [],
      "stateMutability": "nonpayable",
      "type": "function"
    }
  ],
  "bytecode": "0x6080604052620000336040518060600160405280602181526020016200153c602191396200003960201b620007741760201c565b620001cd565b620000d98160405160240162000050919062000146565b6040516020818303038152906040527f41304fac000000000000000000000000000000000000000000000000000000007bffffffffffffffffffffffffffffffffffffffffffffffffffffffff19166020820180517bffffffffffffffffffffffffffffffffffffffffffffffffffffffff8381831617835250505050620000dc60201b60201c565b50565b60008151905060006a636f6e736f6c652e6c6f679050602083016000808483855afa5050505050565b600062000112826200016a565b6200011e818562000175565b93506200013081856020860162000186565b6200013b81620001bc565b840191505092915050565b6000602082019050818103600083015262000162818462000105565b905092915050565b600081519050919050565b600082825260208201905092915050565b60005b83811015620001a657808201518184015260208101905062000189565b83811115620001b6576000848401525b50505050565b6000601f19601f8301169050919050565b61135f80620001dd6000396000f3fe608060405234801561001057600080fd5b50600436106100575760003560e01c8063449d46c01461005c57806344ee25b6146100785780639a2cdc08146100a8578063a42a4663146100c6578063bd43a908146100f6575b600080fd5b61007660048036038101906100719190610b56565b610114565b005b610092600480360381019061008d9190610b2d565b6105a8565b60405161009f9190610f01565b60405180910390f35b6100b06105c0565b6040516100bd9190610f01565b60405180910390f35b6100e060048036038101906100db9190610b2d565b61060b565b6040516100ed9190610f01565b60405180910390f35b6100fe610623565b60405161010b9190610dbf565b60405180910390f35b42610384600460003373ffffffffffffffffffffffffffffffffffffffff1673ffffffffffffffffffffffffffffffffffffffff168152602001908152602001600020546101629190611013565b106101a2576040517f08c379a000000000000000000000000000000000000000000000000000000000815260040161019990610ee1565b60405180910390fd5b42600460003373ffffffffffffffffffffffffffffffffffffffff1673ffffffffffffffffffffffffffffffffffffffff1681526020019081526020016000208190555060016000808282546101f89190611013565b9250508190555060018060003373ffffffffffffffffffffffffffffffffffffffff1673ffffffffffffffffffffffffffffffffffffffff168152602001908152602001600020600082825461024e9190611013565b925050819055506102d46040518060400160405280601681526020017f2573206861732077617665642025642074696d6573210000000000000000000081525033600160003373ffffffffffffffffffffffffffffffffffffffff1673ffffffffffffffffffffffffffffffffffffffff1681526020019081526020016000205461080d565b600360405180606001604052803373ffffffffffffffffffffffffffffffffffffffff16815260200183815260200142815250908060018154018082558091505060019003906000526020600020906003020160009091909190915060008201518160000160006101000a81548173ffffffffffffffffffffffffffffffffffffffff021916908373ffffffffffffffffffffffffffffffffffffffff1602179055506020820151816001019080519060200190610393929190610a0d565b506040820151816002015550506000606460025442446103b39190611013565b6103bd9190611013565b6103c7919061114a565b90506104086040518060400160405280601681526020017f52616e646f6d20232067656e6572617465643a20257300000000000000000000815250826108ac565b806002819055506032811015610554576104576040518060400160405280600781526020017f257320776f6e210000000000000000000000000000000000000000000000000081525033610948565b6000655af3107a40009050478111156104a5576040517f08c379a000000000000000000000000000000000000000000000000000000000815260040161049c90610ea1565b60405180910390fd5b60003373ffffffffffffffffffffffffffffffffffffffff16826040516104cb90610daa565b60006040518083038185875af1925050503d8060008114610508576040519150601f19603f3d011682016040523d82523d6000602084013e61050d565b606091505b5050905080610551576040517f08c379a000000000000000000000000000000000000000000000000000000000815260040161054890610ec1565b60405180910390fd5b50505b3373ffffffffffffffffffffffffffffffffffffffff167f5f7e16dc676677766a70e9c5628aa6c54ddb8b6e5188e2ae1e1f17f1ffbea716428460405161059c929190610f1c565b60405180910390a25050565b60016020528060005260406000206000915090505481565b60006106036040518060400160405280601781526020017f5765206861766520256420746f74616c207761766573210000000000000000008152506000546108ac565b600054905090565b60046020528060005260406000206000915090505481565b60606003805480602002602001604051908101604052809291908181526020016000905b8282101561076b57838290600052602060002090600302016040518060600160405290816000820160009054906101000a900473ffffffffffffffffffffffffffffffffffffffff1673ffffffffffffffffffffffffffffffffffffffff1673ffffffffffffffffffffffffffffffffffffffff1681526020016001820180546106d0906110e7565b80601f01602080910402602001604051908101604052809291908181526020018280546106fc906110e7565b80156107495780601f1061071e57610100808354040283529160200191610749565b820191906000526020600020905b81548152906001019060200180831161072c57829003601f168201915b5050505050815260200160028201548152505081526020019060010190610647565b50505050905090565b61080a816040516024016107889190610de1565b6040516020818303038152906040527f41304fac000000000000000000000000000000000000000000000000000000007bffffffffffffffffffffffffffffffffffffffffffffffffffffffff19166020820180517bffffffffffffffffffffffffffffffffffffffffffffffffffffffff83818316178352505050506109e4565b50565b6108a783838360405160240161082593929190610e33565b6040516020818303038152906040527f07c81217000000000000000000000000000000000000000000000000000000007bffffffffffffffffffffffffffffffffffffffffffffffffffffffff19166020820180517bffffffffffffffffffffffffffffffffffffffffffffffffffffffff83818316178352505050506109e4565b505050565b61094482826040516024016108c2929190610e71565b6040516020818303038152906040527f9710a9d0000000000000000000000000000000000000000000000000000000007bffffffffffffffffffffffffffffffffffffffffffffffffffffffff19166020820180517bffffffffffffffffffffffffffffffffffffffffffffffffffffffff83818316178352505050506109e4565b5050565b6109e0828260405160240161095e929190610e03565b6040516020818303038152906040527f319af333000000000000000000000000000000000000000000000000000000007bffffffffffffffffffffffffffffffffffffffffffffffffffffffff19166020820180517bffffffffffffffffffffffffffffffffffffffffffffffffffffffff83818316178352505050506109e4565b5050565b60008151905060006a636f6e736f6c652e6c6f679050602083016000808483855afa5050505050565b828054610a19906110e7565b90600052602060002090601f016020900481019282610a3b5760008555610a82565b82601f10610a5457805160ff1916838001178555610a82565b82800160010185558215610a82579182015b82811115610a81578251825591602001919060010190610a66565b5b509050610a8f9190610a93565b5090565b5b80821115610aac576000816000905550600101610a94565b5090565b6000610ac3610abe84610f71565b610f4c565b905082815260208101848484011115610adb57600080fd5b610ae68482856110a5565b509392505050565b600081359050610afd81611312565b92915050565b600082601f830112610b1457600080fd5b8135610b24848260208601610ab0565b91505092915050565b600060208284031215610b3f57600080fd5b6000610b4d84828501610aee565b91505092915050565b600060208284031215610b6857600080fd5b600082013567ffffffffffffffff811115610b8257600080fd5b610b8e84828501610b03565b91505092915050565b6000610ba38383610d3c565b905092915050565b610bb481611069565b82525050565b610bc381611069565b82525050565b6000610bd482610fb2565b610bde8185610fd5565b935083602082028501610bf085610fa2565b8060005b85811015610c2c5784840389528151610c0d8582610b97565b9450610c1883610fc8565b925060208a01995050600181019050610bf4565b50829750879550505050505092915050565b6000610c4982610fbd565b610c538185610ff1565b9350610c638185602086016110b4565b610c6c81611237565b840191505092915050565b6000610c8282610fbd565b610c8c8185611002565b9350610c9c8185602086016110b4565b610ca581611237565b840191505092915050565b6000610cbd603483611002565b9150610cc882611248565b604082019050919050565b6000610ce0602783611002565b9150610ceb82611297565b604082019050919050565b6000610d03600083610fe6565b9150610d0e826112e6565b600082019050919050565b6000610d26600883611002565b9150610d31826112e9565b602082019050919050565b6000606083016000830151610d546000860182610bab565b5060208301518482036020860152610d6c8282610c3e565b9150506040830151610d816040860182610d8c565b508091505092915050565b610d958161109b565b82525050565b610da48161109b565b82525050565b6000610db582610cf6565b9150819050919050565b60006020820190508181036000830152610dd98184610bc9565b905092915050565b60006020820190508181036000830152610dfb8184610c77565b905092915050565b60006040820190508181036000830152610e1d8185610c77565b9050610e2c6020830184610bba565b9392505050565b60006060820190508181036000830152610e4d8186610c77565b9050610e5c6020830185610bba565b610e696040830184610d9b565b949350505050565b60006040820190508181036000830152610e8b8185610c77565b9050610e9a6020830184610d9b565b9392505050565b60006020820190508181036000830152610eba81610cb0565b9050919050565b60006020820190508181036000830152610eda81610cd3565b9050919050565b60006020820190508181036000830152610efa81610d19565b9050919050565b6000602082019050610f166000830184610d9b565b92915050565b6000604082019050610f316000830185610d9b565b8181036020830152610f438184610c77565b90509392505050565b6000610f56610f67565b9050610f628282611119565b919050565b6000604051905090565b600067ffffffffffffffff821115610f8c57610f8b611208565b5b610f9582611237565b9050602081019050919050565b6000819050602082019050919050565b600081519050919050565b600081519050919050565b6000602082019050919050565b600082825260208201905092915050565b600081905092915050565b600082825260208201905092915050565b600082825260208201905092915050565b600061101e8261109b565b91506110298361109b565b9250827fffffffffffffffffffffffffffffffffffffffffffffffffffffffffffffffff0382111561105e5761105d61117b565b5b828201905092915050565b60006110748261107b565b9050919050565b600073ffffffffffffffffffffffffffffffffffffffff82169050919050565b6000819050919050565b82818337600083830152505050565b60005b838110156110d25780820151818401526020810190506110b7565b838111156110e1576000848401525b50505050565b600060028204905060018216806110ff57607f821691505b60208210811415611113576111126111d9565b5b50919050565b61112282611237565b810181811067ffffffffffffffff8211171561114157611140611208565b5b80604052505050565b60006111558261109b565b91506111608361109b565b9250826111705761116f6111aa565b5b828206905092915050565b7f4e487b7100000000000000000000000000000000000000000000000000000000600052601160045260246000fd5b7f4e487b7100000000000000000000000000000000000000000000000000000000600052601260045260246000fd5b7f4e487b7100000000000000000000000000000000000000000000000000000000600052602260045260246000fd5b7f4e487b7100000000000000000000000000000000000000000000000000000000600052604160045260246000fd5b6000601f19601f8301169050919050565b7f547279696e6720746f207769746864726177206d6f7265206d6f6e657920746860008201527f616e2074686520636f6e7472616374206861732e000000000000000000000000602082015250565b7f4661696c656420746f207769746864726177206d6f6e65792066726f6d20636f60008201527f6e74726163742e00000000000000000000000000000000000000000000000000602082015250565b50565b7f576169742031356d000000000000000000000000000000000000000000000000600082015250565b61131b81611069565b811461132657600080fd5b5056fea2646970667358221220db09b8128c8e567521b56e855af16441eb2c234cc3b277e37e88e28acce0b68564736f6c63430008040033434f4e535452554354494e4720534d41525420434f4e54524143542e20504f472e",
  "linkReferences": {},
  "deployedLinkReferences": {}
}